{
  "_format": "hh-sol-artifact-1",
  "contractName": "Ventura",
  "sourceName": "contracts/Ventura.sol",
  "abi": [
    {
      "inputs": [
        {
          "internalType": "address",
          "name": "_owner",
          "type": "address"
        },
        {
          "internalType": "address",
          "name": "_paymentToken",
          "type": "address"
        },
        {
          "internalType": "address",
          "name": "nftAddress",
          "type": "address"
        }
      ],
      "stateMutability": "nonpayable",
      "type": "constructor"
    },
    {
      "inputs": [],
      "name": "ADDRESS_ZERO_NOT_ALLOWED",
      "type": "error"
    },
    {
      "inputs": [],
      "name": "CAN_NOT_REGISTER_FOR_YOUR_OWN_EVENT",
      "type": "error"
    },
    {
      "inputs": [
        {
          "internalType": "bytes32",
          "name": "",
          "type": "bytes32"
        }
      ],
      "name": "EVENT_NOT_FOUND",
      "type": "error"
    },
    {
      "inputs": [],
      "name": "EVENT_STILL_ON",
      "type": "error"
    },
    {
      "inputs": [
        {
          "internalType": "uint256",
          "name": "",
          "type": "uint256"
        }
      ],
      "name": "INSUFFICIENT_VALUE",
      "type": "error"
    },
    {
      "inputs": [
        {
          "internalType": "address",
          "name": "",
          "type": "address"
        }
      ],
      "name": "IS_A_PARTICIPANT",
      "type": "error"
    },
    {
      "inputs": [],
      "name": "N0_EVENT",
      "type": "error"
    },
    {
      "inputs": [],
      "name": "NOT_REGISTERED",
      "type": "error"
    },
    {
      "inputs": [
        {
          "internalType": "address",
          "name": "owner",
          "type": "address"
        }
      ],
      "name": "OwnableInvalidOwner",
      "type": "error"
    },
    {
      "inputs": [
        {
          "internalType": "address",
          "name": "account",
          "type": "address"
        }
      ],
      "name": "OwnableUnauthorizedAccount",
      "type": "error"
    },
    {
      "inputs": [],
      "name": "REGISTRATION_NOT_ON",
      "type": "error"
    },
    {
      "inputs": [],
      "name": "REG_IS_OVER",
      "type": "error"
    },
    {
      "inputs": [],
      "name": "TOO_LATE_TO_CANCEL_EVENT",
      "type": "error"
    },
    {
      "inputs": [],
      "name": "UNAUTHORIZED",
      "type": "error"
    },
    {
      "anonymous": false,
      "inputs": [
        {
          "indexed": true,
          "internalType": "address",
          "name": "scanner",
          "type": "address"
        },
        {
          "indexed": true,
          "internalType": "address",
          "name": "participant",
          "type": "address"
        },
        {
          "indexed": true,
          "internalType": "bytes32",
          "name": "eventId",
          "type": "bytes32"
        }
      ],
      "name": "BarcodeScanned",
      "type": "event"
    },
    {
      "anonymous": false,
      "inputs": [
        {
          "indexed": true,
          "internalType": "bytes32",
          "name": "_eventId",
          "type": "bytes32"
        }
      ],
      "name": "EventCancelled",
      "type": "event"
    },
    {
      "anonymous": false,
      "inputs": [
        {
          "indexed": true,
          "internalType": "address",
          "name": "creator",
          "type": "address"
        },
        {
          "indexed": true,
          "internalType": "bytes32",
          "name": "eventId",
          "type": "bytes32"
        },
        {
          "indexed": true,
          "internalType": "enum IVentura.EventType",
          "name": "EventType",
          "type": "uint8"
        },
        {
          "indexed": false,
          "internalType": "string",
          "name": "eventTitle",
          "type": "string"
        }
      ],
      "name": "EventCreated",
      "type": "event"
    },
    {
      "anonymous": false,
      "inputs": [
        {
          "indexed": true,
          "internalType": "address",
          "name": "previousOwner",
          "type": "address"
        },
        {
          "indexed": true,
          "internalType": "address",
          "name": "newOwner",
          "type": "address"
        }
      ],
      "name": "OwnershipTransferred",
      "type": "event"
    },
    {
      "anonymous": false,
      "inputs": [
        {
          "indexed": true,
          "internalType": "bytes32",
          "name": "eventId",
          "type": "bytes32"
        },
        {
          "indexed": false,
          "internalType": "string",
          "name": "message",
          "type": "string"
        }
      ],
      "name": "RegInfo",
      "type": "event"
    },
    {
      "anonymous": false,
      "inputs": [
        {
          "indexed": true,
          "internalType": "address",
          "name": "participant",
          "type": "address"
        },
        {
          "indexed": true,
          "internalType": "bytes32",
          "name": "eventId",
          "type": "bytes32"
        },
        {
          "indexed": true,
          "internalType": "uint256",
          "name": "price",
          "type": "uint256"
        }
      ],
      "name": "Registered",
      "type": "event"
    },
    {
      "inputs": [
        {
          "internalType": "bytes32",
          "name": "_eventId",
          "type": "bytes32"
        }
      ],
      "name": "cancelEvent",
      "outputs": [],
      "stateMutability": "nonpayable",
      "type": "function"
    },
    {
      "inputs": [
        {
          "components": [
            {
              "internalType": "string",
              "name": "eventTitle",
              "type": "string"
            },
            {
              "internalType": "string",
              "name": "imageUrl",
              "type": "string"
            },
            {
              "internalType": "string",
              "name": "description",
              "type": "string"
            },
            {
              "internalType": "uint256",
              "name": "price",
              "type": "uint256"
            },
            {
              "internalType": "string",
              "name": "venue",
              "type": "string"
            },
            {
              "internalType": "uint256[]",
              "name": "eventDate",
              "type": "uint256[]"
            },
            {
              "internalType": "string",
              "name": "startTime",
              "type": "string"
            },
            {
              "internalType": "string",
              "name": "endTime",
              "type": "string"
            }
          ],
          "internalType": "struct IVentura.EventData",
          "name": "_eventData",
          "type": "tuple"
        }
      ],
      "name": "createEvent",
      "outputs": [
        {
          "internalType": "bool",
          "name": "_success",
          "type": "bool"
        }
      ],
      "stateMutability": "nonpayable",
      "type": "function"
    },
    {
      "inputs": [
        {
          "internalType": "bytes32",
          "name": "_eventId",
          "type": "bytes32"
        }
      ],
      "name": "eventIsOver",
      "outputs": [],
      "stateMutability": "nonpayable",
      "type": "function"
    },
    {
      "inputs": [
        {
          "internalType": "uint256",
          "name": "",
          "type": "uint256"
        }
      ],
      "name": "events",
      "outputs": [
        {
          "internalType": "address",
          "name": "creator",
          "type": "address"
        },
        {
          "internalType": "bytes32",
          "name": "eventId",
          "type": "bytes32"
        },
        {
          "internalType": "string",
          "name": "imageUrl",
          "type": "string"
        },
        {
          "internalType": "string",
          "name": "eventTitle",
          "type": "string"
        },
        {
          "internalType": "string",
          "name": "description",
          "type": "string"
        },
        {
          "internalType": "string",
          "name": "venue",
          "type": "string"
        },
        {
          "internalType": "uint256",
          "name": "price",
          "type": "uint256"
        },
        {
          "components": [
            {
              "internalType": "string",
              "name": "startTime",
              "type": "string"
            },
            {
              "internalType": "string",
              "name": "endTime",
              "type": "string"
            }
          ],
          "internalType": "struct IVentura.Timing",
          "name": "timing",
          "type": "tuple"
        },
        {
          "internalType": "enum IVentura.EventType",
          "name": "eventType",
          "type": "uint8"
        },
        {
          "internalType": "uint256",
          "name": "createdAt",
          "type": "uint256"
        },
        {
          "components": [
            {
              "internalType": "bool",
              "name": "regIsOn",
              "type": "bool"
            },
            {
              "internalType": "bool",
              "name": "isOver",
              "type": "bool"
            },
            {
              "internalType": "bool",
              "name": "cancelled",
              "type": "bool"
            }
          ],
          "internalType": "struct IVentura.BoolCheck",
          "name": "boolCheck",
          "type": "tuple"
        }
      ],
      "stateMutability": "view",
      "type": "function"
    },
    {
      "inputs": [
        {
          "internalType": "bytes32",
          "name": "",
          "type": "bytes32"
        }
      ],
      "name": "eventsCreated",
      "outputs": [
        {
          "internalType": "address",
          "name": "creator",
          "type": "address"
        },
        {
          "internalType": "bytes32",
          "name": "eventId",
          "type": "bytes32"
        },
        {
          "internalType": "string",
          "name": "imageUrl",
          "type": "string"
        },
        {
          "internalType": "string",
          "name": "eventTitle",
          "type": "string"
        },
        {
          "internalType": "string",
          "name": "description",
          "type": "string"
        },
        {
          "internalType": "string",
          "name": "venue",
          "type": "string"
        },
        {
          "internalType": "uint256",
          "name": "price",
          "type": "uint256"
        },
        {
          "components": [
            {
              "internalType": "string",
              "name": "startTime",
              "type": "string"
            },
            {
              "internalType": "string",
              "name": "endTime",
              "type": "string"
            }
          ],
          "internalType": "struct IVentura.Timing",
          "name": "timing",
          "type": "tuple"
        },
        {
          "internalType": "enum IVentura.EventType",
          "name": "eventType",
          "type": "uint8"
        },
        {
          "internalType": "uint256",
          "name": "createdAt",
          "type": "uint256"
        },
        {
          "components": [
            {
              "internalType": "bool",
              "name": "regIsOn",
              "type": "bool"
            },
            {
              "internalType": "bool",
              "name": "isOver",
              "type": "bool"
            },
            {
              "internalType": "bool",
              "name": "cancelled",
              "type": "bool"
            }
          ],
          "internalType": "struct IVentura.BoolCheck",
          "name": "boolCheck",
          "type": "tuple"
        }
      ],
      "stateMutability": "view",
      "type": "function"
    },
    {
      "inputs": [],
      "name": "getAllEvents",
      "outputs": [
        {
          "components": [
            {
              "internalType": "address",
              "name": "creator",
              "type": "address"
            },
            {
              "internalType": "bytes32",
              "name": "eventId",
              "type": "bytes32"
            },
            {
              "internalType": "string",
              "name": "imageUrl",
              "type": "string"
            },
            {
              "internalType": "string",
              "name": "eventTitle",
              "type": "string"
            },
            {
              "internalType": "string",
              "name": "description",
              "type": "string"
            },
            {
              "internalType": "string",
              "name": "venue",
              "type": "string"
            },
            {
              "internalType": "uint256",
              "name": "price",
              "type": "uint256"
            },
            {
              "internalType": "address[]",
              "name": "participants",
              "type": "address[]"
            },
            {
              "internalType": "uint256[]",
              "name": "eventDate",
              "type": "uint256[]"
            },
            {
              "components": [
                {
                  "internalType": "string",
                  "name": "startTime",
                  "type": "string"
                },
                {
                  "internalType": "string",
                  "name": "endTime",
                  "type": "string"
                }
              ],
              "internalType": "struct IVentura.Timing",
              "name": "timing",
              "type": "tuple"
            },
            {
              "internalType": "enum IVentura.EventType",
              "name": "eventType",
              "type": "uint8"
            },
            {
              "internalType": "uint256",
              "name": "createdAt",
              "type": "uint256"
            },
            {
              "components": [
                {
                  "internalType": "bool",
                  "name": "regIsOn",
                  "type": "bool"
                },
                {
                  "internalType": "bool",
                  "name": "isOver",
                  "type": "bool"
                },
                {
                  "internalType": "bool",
                  "name": "cancelled",
                  "type": "bool"
                }
              ],
              "internalType": "struct IVentura.BoolCheck",
              "name": "boolCheck",
              "type": "tuple"
            }
          ],
          "internalType": "struct IVentura.Event[]",
          "name": "",
          "type": "tuple[]"
        }
      ],
      "stateMutability": "view",
      "type": "function"
    },
    {
      "inputs": [
        {
          "internalType": "address",
          "name": "_creator",
          "type": "address"
        }
      ],
      "name": "getEeventsByCreator",
      "outputs": [
        {
          "components": [
            {
              "internalType": "address",
              "name": "creator",
              "type": "address"
            },
            {
              "internalType": "bytes32",
              "name": "eventId",
              "type": "bytes32"
            },
            {
              "internalType": "string",
              "name": "imageUrl",
              "type": "string"
            },
            {
              "internalType": "string",
              "name": "eventTitle",
              "type": "string"
            },
            {
              "internalType": "string",
              "name": "description",
              "type": "string"
            },
            {
              "internalType": "string",
              "name": "venue",
              "type": "string"
            },
            {
              "internalType": "uint256",
              "name": "price",
              "type": "uint256"
            },
            {
              "internalType": "address[]",
              "name": "participants",
              "type": "address[]"
            },
            {
              "internalType": "uint256[]",
              "name": "eventDate",
              "type": "uint256[]"
            },
            {
              "components": [
                {
                  "internalType": "string",
                  "name": "startTime",
                  "type": "string"
                },
                {
                  "internalType": "string",
                  "name": "endTime",
                  "type": "string"
                }
              ],
              "internalType": "struct IVentura.Timing",
              "name": "timing",
              "type": "tuple"
            },
            {
              "internalType": "enum IVentura.EventType",
              "name": "eventType",
              "type": "uint8"
            },
            {
              "internalType": "uint256",
              "name": "createdAt",
              "type": "uint256"
            },
            {
              "components": [
                {
                  "internalType": "bool",
                  "name": "regIsOn",
                  "type": "bool"
                },
                {
                  "internalType": "bool",
                  "name": "isOver",
                  "type": "bool"
                },
                {
                  "internalType": "bool",
                  "name": "cancelled",
                  "type": "bool"
                }
              ],
              "internalType": "struct IVentura.BoolCheck",
              "name": "boolCheck",
              "type": "tuple"
            }
          ],
          "internalType": "struct IVentura.Event[]",
          "name": "_allEvents",
          "type": "tuple[]"
        }
      ],
      "stateMutability": "nonpayable",
      "type": "function"
    },
    {
      "inputs": [
        {
          "internalType": "bytes32",
          "name": "_eventId",
          "type": "bytes32"
        }
      ],
      "name": "getEventById",
      "outputs": [
        {
          "components": [
            {
              "internalType": "address",
              "name": "creator",
              "type": "address"
            },
            {
              "internalType": "bytes32",
              "name": "eventId",
              "type": "bytes32"
            },
            {
              "internalType": "string",
              "name": "imageUrl",
              "type": "string"
            },
            {
              "internalType": "string",
              "name": "eventTitle",
              "type": "string"
            },
            {
              "internalType": "string",
              "name": "description",
              "type": "string"
            },
            {
              "internalType": "string",
              "name": "venue",
              "type": "string"
            },
            {
              "internalType": "uint256",
              "name": "price",
              "type": "uint256"
            },
            {
              "internalType": "address[]",
              "name": "participants",
              "type": "address[]"
            },
            {
              "internalType": "uint256[]",
              "name": "eventDate",
              "type": "uint256[]"
            },
            {
              "components": [
                {
                  "internalType": "string",
                  "name": "startTime",
                  "type": "string"
                },
                {
                  "internalType": "string",
                  "name": "endTime",
                  "type": "string"
                }
              ],
              "internalType": "struct IVentura.Timing",
              "name": "timing",
              "type": "tuple"
            },
            {
              "internalType": "enum IVentura.EventType",
              "name": "eventType",
              "type": "uint8"
            },
            {
              "internalType": "uint256",
              "name": "createdAt",
              "type": "uint256"
            },
            {
              "components": [
                {
                  "internalType": "bool",
                  "name": "regIsOn",
                  "type": "bool"
                },
                {
                  "internalType": "bool",
                  "name": "isOver",
                  "type": "bool"
                },
                {
                  "internalType": "bool",
                  "name": "cancelled",
                  "type": "bool"
                }
              ],
              "internalType": "struct IVentura.BoolCheck",
              "name": "boolCheck",
              "type": "tuple"
            }
          ],
          "internalType": "struct IVentura.Event",
          "name": "",
          "type": "tuple"
        }
      ],
      "stateMutability": "view",
      "type": "function"
    },
    {
      "inputs": [
        {
          "internalType": "address",
          "name": "_participant",
          "type": "address"
        },
        {
          "internalType": "bytes32",
          "name": "_eventId",
          "type": "bytes32"
        }
      ],
      "name": "markAttendnceWithBarcode",
      "outputs": [],
      "stateMutability": "nonpayable",
      "type": "function"
    },
    {
      "inputs": [
        {
          "internalType": "bytes32",
          "name": "_eventId",
          "type": "bytes32"
        }
      ],
      "name": "mintCreatorNFT",
      "outputs": [],
      "stateMutability": "nonpayable",
      "type": "function"
    },
    {
      "inputs": [],
      "name": "owner",
      "outputs": [
        {
          "internalType": "address",
          "name": "",
          "type": "address"
        }
      ],
      "stateMutability": "view",
      "type": "function"
    },
    {
      "inputs": [
        {
          "internalType": "bytes32",
          "name": "_eventId",
          "type": "bytes32"
        }
      ],
      "name": "registerForEvent",
      "outputs": [],
      "stateMutability": "nonpayable",
      "type": "function"
    },
    {
      "inputs": [
        {
          "internalType": "bytes32",
          "name": "_eventId",
          "type": "bytes32"
        }
      ],
      "name": "registrationOn",
      "outputs": [
        {
          "internalType": "bool",
          "name": "",
          "type": "bool"
        }
      ],
      "stateMutability": "nonpayable",
      "type": "function"
    },
    {
      "inputs": [
        {
          "internalType": "bytes32",
          "name": "_eventId",
          "type": "bytes32"
        }
      ],
      "name": "registrationOver",
      "outputs": [
        {
          "internalType": "bool",
          "name": "",
          "type": "bool"
        }
      ],
      "stateMutability": "nonpayable",
      "type": "function"
    },
    {
      "inputs": [],
      "name": "renounceOwnership",
      "outputs": [],
      "stateMutability": "nonpayable",
      "type": "function"
    },
    {
      "inputs": [
        {
          "internalType": "address",
          "name": "newOwner",
          "type": "address"
        }
      ],
      "name": "transferOwnership",
      "outputs": [],
      "stateMutability": "nonpayable",
      "type": "function"
    }
  ],
  "bytecode": "0x60c06040523480156200001157600080fd5b5060405162004945380380620049458339810160408190526200003491620000f6565b826001600160a01b0381166200006457604051631e4fbdf760e01b81526000600482015260240160405180910390fd5b6200006f8162000089565b506001600160a01b039182166080521660a0525062000140565b600080546001600160a01b038381166001600160a01b0319831681178455604051919092169283917f8be0079c531659141344cd1fd0a4f28419497f9722a3daafe3b4186f6b6457e09190a35050565b80516001600160a01b0381168114620000f157600080fd5b919050565b6000806000606084860312156200010c57600080fd5b6200011784620000d9565b92506200012760208501620000d9565b91506200013760408501620000d9565b90509250925092565b60805160a0516147d86200016d6000396000610cc40152600081816139a10152613a9601526147d86000f3fe608060405234801561001057600080fd5b50600436106101005760003560e01c8063981adb9d11610097578063c27a500d11610066578063c27a500d14610225578063d2fcec021461023a578063e4f7f1391461024d578063f2fde38b1461026057600080fd5b8063981adb9d146101cc578063aa26176c146101ec578063bac99b96146101ff578063bf354d911461021257600080fd5b8063715018a6116100d3578063715018a6146101835780637bfc82a41461018b57806381b01bed1461019e5780638da5cb5b146101b157600080fd5b80630b791430146101055780631c55dbe0146101385780632803c8741461015b5780633006506d14610170575b600080fd5b610118610113366004613e0c565b610273565b60405161012f9b9a99989796959493929190613eda565b60405180910390f35b61014b610146366004613e0c565b610669565b604051901515815260200161012f565b61016e610169366004613fc2565b61090d565b005b61016e61017e366004613e0c565b6109fe565b61016e610c1e565b61016e610199366004613e0c565b610c32565b6101186101ac366004613e0c565b610d26565b6000546040516001600160a01b03909116815260200161012f565b6101df6101da366004613e0c565b610d58565b60405161012f9190614193565b61016e6101fa366004613e0c565b610d6f565b61014b61020d366004613e0c565b610fdd565b61014b61022036600461430e565b6111b2565b61022d611412565b60405161012f919061445e565b61022d6102483660046144c0565b611975565b61016e61025b366004613e0c565b61262a565b61016e61026e3660046144c0565b612d35565b6001818154811061028357600080fd5b60009182526020909120600e90910201805460018201546002830180546001600160a01b0390931694509092916102b9906144db565b80601f01602080910402602001604051908101604052809291908181526020018280546102e5906144db565b80156103325780601f1061030757610100808354040283529160200191610332565b820191906000526020600020905b81548152906001019060200180831161031557829003601f168201915b505050505090806003018054610347906144db565b80601f0160208091040260200160405190810160405280929190818152602001828054610373906144db565b80156103c05780601f10610395576101008083540402835291602001916103c0565b820191906000526020600020905b8154815290600101906020018083116103a357829003601f168201915b5050505050908060040180546103d5906144db565b80601f0160208091040260200160405190810160405280929190818152602001828054610401906144db565b801561044e5780601f106104235761010080835404028352916020019161044e565b820191906000526020600020905b81548152906001019060200180831161043157829003601f168201915b505050505090806005018054610463906144db565b80601f016020809104026020016040519081016040528092919081815260200182805461048f906144db565b80156104dc5780601f106104b1576101008083540402835291602001916104dc565b820191906000526020600020905b8154815290600101906020018083116104bf57829003601f168201915b50505050509080600601549080600901604051806040016040529081600082018054610507906144db565b80601f0160208091040260200160405190810160405280929190818152602001828054610533906144db565b80156105805780601f1061055557610100808354040283529160200191610580565b820191906000526020600020905b81548152906001019060200180831161056357829003601f168201915b50505050508152602001600182018054610599906144db565b80601f01602080910402602001604051908101604052809291908181526020018280546105c5906144db565b80156106125780601f106105e757610100808354040283529160200191610612565b820191906000526020600020905b8154815290600101906020018083116105f557829003601f168201915b50505091909252505050600b820154600c83015460408051606081018252600d9095015460ff818116151587526101008204811615156020880152620100009091048116151591860191909152929392909116918b565b60008061067583612d8c565b80519091506001600160a01b031633146106a95760405163118cdaa760e01b81523360048201526024015b60405180910390fd5b61010081015180514291906106c090600190614525565b815181106106d0576106d0614538565b60200260200101511015610710576040517ff2b6493500000000000000000000000000000000000000000000000000000000815260040160405180910390fd5b610180810151600190819052600084815260036020908152604091829020845181546001600160a01b0319166001600160a01b039091161781559084015192810192909255820151829190600282019061076a9082614599565b506060820151600382019061077f9082614599565b50608082015160048201906107949082614599565b5060a082015160058201906107a99082614599565b5060c0820151600682015560e082015180516107cf916007840191602090910190613b71565b5061010082015180516107ec916008840191602090910190613bd6565b506101208201518051600983019081906108069082614599565b506020820151600182019061081b9082614599565b505050610140820151600b8201805460ff1916600183600281111561084257610842613ea2565b0217905550610160820151600c820155610180909101518051600d90920180546020808401516040948501511515620100000262ff0000199115156101000261ff00199715159790971661ffff1990941693909317959095179490941617905580518281526011928101929092527f5265697374726174696f6e206973206f6e0000000000000000000000000000009082015283907f29341fdda8d8688360834551d0778a603368672d46b536833acecc5286164f889060600160405180910390a250600192915050565b6001600160a01b03821661094d576040517f706a5dc300000000000000000000000000000000000000000000000000000000815260040160405180910390fd5b33600090815260046020908152604080832084845290915290205460ff166109a1576040517f60f4985300000000000000000000000000000000000000000000000000000000815260040160405180910390fd5b6001600160a01b0382166000818152600560209081526040808320858452909152808220805460ff191660011790555183929133917fd2ea75cc153ff48ab426fbd23a8cdc4db2f3ffb78aae02e35bd1881788d3aa5b9190a45050565b6000610a0982612d8c565b80519091506001600160a01b03163314610a385760405163118cdaa760e01b81523360048201526024016106a0565b6101008101518051429190610a4f90600190614525565b81518110610a5f57610a5f614538565b602002602001015110610a855760405163220cb44560e01b815260040160405180910390fd5b61018081015160016020918201819052600084815260038352604090819020845181546001600160a01b0319166001600160a01b0390911617815592840151918301919091558201518291906002820190610ae09082614599565b5060608201516003820190610af59082614599565b5060808201516004820190610b0a9082614599565b5060a08201516005820190610b1f9082614599565b5060c0820151600682015560e08201518051610b45916007840191602090910190613b71565b506101008201518051610b62916008840191602090910190613bd6565b50610120820151805160098301908190610b7c9082614599565b5060208201516001820190610b919082614599565b505050610140820151600b8201805460ff19166001836002811115610bb857610bb8613ea2565b0217905550610160820151600c820155610180909101518051600d909201805460208301516040909301511515620100000262ff0000199315156101000261ff00199515159590951661ffff199092169190911793909317919091169190911790555050565b610c266132af565b610c3060006132dc565b565b610c3a6132af565b6000610c4582612d8c565b905080610180015160200151610c6e5760405163220cb44560e01b815260040160405180910390fd5b80516040517f731133e90000000000000000000000000000000000000000000000000000000081526001600160a01b039182166004820152600160248201819052604482015260806064820152600060848201527f00000000000000000000000000000000000000000000000000000000000000009091169063731133e99060a401600060405180830381600087803b158015610d0a57600080fd5b505af1158015610d1e573d6000803e3d6000fd5b505050505050565b6003602052600090815260409020805460018201546002830180546001600160a01b039093169391926102b9906144db565b610d60613c11565b610d6982612d8c565b92915050565b6000610d7a82612d8c565b80519091506001600160a01b03163314610dc0576040517f075fd2b100000000000000000000000000000000000000000000000000000000815260040160405180910390fd5b42816101000151600081518110610dd957610dd9614538565b602002602001015111610e18576040517f7e77eb0100000000000000000000000000000000000000000000000000000000815260040160405180910390fd5b6101808101516001604091820181905260008481526003602090815290839020845181546001600160a01b0319166001600160a01b039091161781559084015191810191909155908201518291906002820190610e759082614599565b5060608201516003820190610e8a9082614599565b5060808201516004820190610e9f9082614599565b5060a08201516005820190610eb49082614599565b5060c0820151600682015560e08201518051610eda916007840191602090910190613b71565b506101008201518051610ef7916008840191602090910190613bd6565b50610120820151805160098301908190610f119082614599565b5060208201516001820190610f269082614599565b505050610140820151600b8201805460ff19166001836002811115610f4d57610f4d613ea2565b0217905550610160820151600c820155610180909101518051600d909201805460208301516040938401511515620100000262ff0000199115156101000261ff00199615159690961661ffff19909316929092179490941793909316929092179091555182907fc0919dcb7e0b464ce8146ec897e4a566e6a1af62233364998f3da696e08b500b90600090a25050565b600080610fe983612d8c565b80519091506001600160a01b031633146110185760405163118cdaa760e01b81523360048201526024016106a0565b61018081015160009081905283815260036020908152604091829020835181546001600160a01b0319166001600160a01b0390911617815590830151600182015590820151829190600282019061106f9082614599565b50606082015160038201906110849082614599565b50608082015160048201906110999082614599565b5060a082015160058201906110ae9082614599565b5060c0820151600682015560e082015180516110d4916007840191602090910190613b71565b5061010082015180516110f1916008840191602090910190613bd6565b5061012082015180516009830190819061110b9082614599565b50602082015160018201906111209082614599565b505050610140820151600b8201805460ff1916600183600281111561114757611147613ea2565b0217905550610160820151600c820155610180909101518051600d909201805460208301516040909301511515620100000262ff0000199315156101000261ff00199515159590951661ffff1990921691909117939093179190911691909117905550600192915050565b6000806111be8361332c565b60018054808201825560009190915281517fb10e2d527612073b26eecdfd717e6a320cf44b4afac2b0732d9fcbe2b7fa0cf6600e90920291820180546001600160a01b0319166001600160a01b0390921691909117815560208301517fb10e2d527612073b26eecdfd717e6a320cf44b4afac2b0732d9fcbe2b7fa0cf78301556040830151929350839290917fb10e2d527612073b26eecdfd717e6a320cf44b4afac2b0732d9fcbe2b7fa0cf801906112779082614599565b506060820151600382019061128c9082614599565b50608082015160048201906112a19082614599565b5060a082015160058201906112b69082614599565b5060c0820151600682015560e082015180516112dc916007840191602090910190613b71565b5061010082015180516112f9916008840191602090910190613bd6565b506101208201518051600983019081906113139082614599565b50602082015160018201906113289082614599565b505050610140820151600b8201805460ff1916600183600281111561134f5761134f613ea2565b0217905550610160820151600c820155610180909101518051600d909201805460208301516040909301511515620100000262ff0000199315156101000261ff00199515159590951661ffff199092169190911793909317919091169190911790556101408101516001925060028111156113cc576113cc613ea2565b6020820151845160405133917fe11a31e373a938d54cac686d15ee5da78148547ab5470f6f8de58752e99a9d8e916114049190614659565b60405180910390a450919050565b6001546060906000036114385760405163092be2bb60e41b815260040160405180910390fd5b6001805480602002602001604051908101604052809291908181526020016000905b8282101561196c576000848152602090819020604080516101a081018252600e860290920180546001600160a01b03168352600181015493830193909352600283018054929392918401916114ae906144db565b80601f01602080910402602001604051908101604052809291908181526020018280546114da906144db565b80156115275780601f106114fc57610100808354040283529160200191611527565b820191906000526020600020905b81548152906001019060200180831161150a57829003601f168201915b50505050508152602001600382018054611540906144db565b80601f016020809104026020016040519081016040528092919081815260200182805461156c906144db565b80156115b95780601f1061158e576101008083540402835291602001916115b9565b820191906000526020600020905b81548152906001019060200180831161159c57829003601f168201915b505050505081526020016004820180546115d2906144db565b80601f01602080910402602001604051908101604052809291908181526020018280546115fe906144db565b801561164b5780601f106116205761010080835404028352916020019161164b565b820191906000526020600020905b81548152906001019060200180831161162e57829003601f168201915b50505050508152602001600582018054611664906144db565b80601f0160208091040260200160405190810160405280929190818152602001828054611690906144db565b80156116dd5780601f106116b2576101008083540402835291602001916116dd565b820191906000526020600020905b8154815290600101906020018083116116c057829003601f168201915b50505050508152602001600682015481526020016007820180548060200260200160405190810160405280929190818152602001828054801561174957602002820191906000526020600020905b81546001600160a01b0316815260019091019060200180831161172b575b50505050508152602001600882018054806020026020016040519081016040528092919081815260200182805480156117a157602002820191906000526020600020905b81548152602001906001019080831161178d575b50505050508152602001600982016040518060400160405290816000820180546117ca906144db565b80601f01602080910402602001604051908101604052809291908181526020018280546117f6906144db565b80156118435780601f1061181857610100808354040283529160200191611843565b820191906000526020600020905b81548152906001019060200180831161182657829003601f168201915b5050505050815260200160018201805461185c906144db565b80601f0160208091040260200160405190810160405280929190818152602001828054611888906144db565b80156118d55780601f106118aa576101008083540402835291602001916118d5565b820191906000526020600020905b8154815290600101906020018083116118b857829003601f168201915b505050919092525050508152600b82015460209091019060ff16600281111561190057611900613ea2565b600281111561191157611911613ea2565b8152600c82015460208083019190915260408051606081018252600d9094015460ff8082161515865261010082048116151586850152620100009091041615158482015290910191909152908252600192909201910161145a565b50505050905090565b606060006001805480602002602001604051908101604052809291908181526020016000905b82821015611ead576000848152602090819020604080516101a081018252600e860290920180546001600160a01b03168352600181015493830193909352600283018054929392918401916119ef906144db565b80601f0160208091040260200160405190810160405280929190818152602001828054611a1b906144db565b8015611a685780601f10611a3d57610100808354040283529160200191611a68565b820191906000526020600020905b815481529060010190602001808311611a4b57829003601f168201915b50505050508152602001600382018054611a81906144db565b80601f0160208091040260200160405190810160405280929190818152602001828054611aad906144db565b8015611afa5780601f10611acf57610100808354040283529160200191611afa565b820191906000526020600020905b815481529060010190602001808311611add57829003601f168201915b50505050508152602001600482018054611b13906144db565b80601f0160208091040260200160405190810160405280929190818152602001828054611b3f906144db565b8015611b8c5780601f10611b6157610100808354040283529160200191611b8c565b820191906000526020600020905b815481529060010190602001808311611b6f57829003601f168201915b50505050508152602001600582018054611ba5906144db565b80601f0160208091040260200160405190810160405280929190818152602001828054611bd1906144db565b8015611c1e5780601f10611bf357610100808354040283529160200191611c1e565b820191906000526020600020905b815481529060010190602001808311611c0157829003601f168201915b505050505081526020016006820154815260200160078201805480602002602001604051908101604052809291908181526020018280548015611c8a57602002820191906000526020600020905b81546001600160a01b03168152600190910190602001808311611c6c575b5050505050815260200160088201805480602002602001604051908101604052809291908181526020018280548015611ce257602002820191906000526020600020905b815481526020019060010190808311611cce575b5050505050815260200160098201604051806040016040529081600082018054611d0b906144db565b80601f0160208091040260200160405190810160405280929190818152602001828054611d37906144db565b8015611d845780601f10611d5957610100808354040283529160200191611d84565b820191906000526020600020905b815481529060010190602001808311611d6757829003601f168201915b50505050508152602001600182018054611d9d906144db565b80601f0160208091040260200160405190810160405280929190818152602001828054611dc9906144db565b8015611e165780601f10611deb57610100808354040283529160200191611e16565b820191906000526020600020905b815481529060010190602001808311611df957829003601f168201915b505050919092525050508152600b82015460209091019060ff166002811115611e4157611e41613ea2565b6002811115611e5257611e52613ea2565b8152600c82015460208083019190915260408051606081018252600d9094015460ff8082161515865261010082048116151586850152620100009091041615158482015290910191909152908252600192909201910161199b565b50505050905060005b81518110156120b857836001600160a01b0316828281518110611edb57611edb614538565b6020026020010151600001516001600160a01b0316036120a6576002828281518110611f0957611f09614538565b6020908102919091018101518254600180820185556000948552938390208251600e9092020180546001600160a01b0319166001600160a01b03909216919091178155918101519282019290925560408201516002820190611f6b9082614599565b5060608201516003820190611f809082614599565b5060808201516004820190611f959082614599565b5060a08201516005820190611faa9082614599565b5060c0820151600682015560e08201518051611fd0916007840191602090910190613b71565b506101008201518051611fed916008840191602090910190613bd6565b506101208201518051600983019081906120079082614599565b506020820151600182019061201c9082614599565b505050610140820151600b8201805460ff1916600183600281111561204357612043613ea2565b0217905550610160820151600c820155610180909101518051600d909201805460208301516040909301511515620100000262ff0000199315156101000261ff00199515159590951661ffff199092169190911793909317919091169190911790555b806120b08161466c565b915050611eb6565b506002546000036120dc5760405163092be2bb60e41b815260040160405180910390fd5b6002805480602002602001604051908101604052809291908181526020016000905b82821015612610576000848152602090819020604080516101a081018252600e860290920180546001600160a01b0316835260018101549383019390935260028301805492939291840191612152906144db565b80601f016020809104026020016040519081016040528092919081815260200182805461217e906144db565b80156121cb5780601f106121a0576101008083540402835291602001916121cb565b820191906000526020600020905b8154815290600101906020018083116121ae57829003601f168201915b505050505081526020016003820180546121e4906144db565b80601f0160208091040260200160405190810160405280929190818152602001828054612210906144db565b801561225d5780601f106122325761010080835404028352916020019161225d565b820191906000526020600020905b81548152906001019060200180831161224057829003601f168201915b50505050508152602001600482018054612276906144db565b80601f01602080910402602001604051908101604052809291908181526020018280546122a2906144db565b80156122ef5780601f106122c4576101008083540402835291602001916122ef565b820191906000526020600020905b8154815290600101906020018083116122d257829003601f168201915b50505050508152602001600582018054612308906144db565b80601f0160208091040260200160405190810160405280929190818152602001828054612334906144db565b80156123815780601f1061235657610100808354040283529160200191612381565b820191906000526020600020905b81548152906001019060200180831161236457829003601f168201915b5050505050815260200160068201548152602001600782018054806020026020016040519081016040528092919081815260200182805480156123ed57602002820191906000526020600020905b81546001600160a01b031681526001909101906020018083116123cf575b505050505081526020016008820180548060200260200160405190810160405280929190818152602001828054801561244557602002820191906000526020600020905b815481526020019060010190808311612431575b505050505081526020016009820160405180604001604052908160008201805461246e906144db565b80601f016020809104026020016040519081016040528092919081815260200182805461249a906144db565b80156124e75780601f106124bc576101008083540402835291602001916124e7565b820191906000526020600020905b8154815290600101906020018083116124ca57829003601f168201915b50505050508152602001600182018054612500906144db565b80601f016020809104026020016040519081016040528092919081815260200182805461252c906144db565b80156125795780601f1061254e57610100808354040283529160200191612579565b820191906000526020600020905b81548152906001019060200180831161255c57829003601f168201915b505050919092525050508152600b82015460209091019060ff1660028111156125a4576125a4613ea2565b60028111156125b5576125b5613ea2565b8152600c82015460208083019190915260408051606081018252600d9094015460ff808216151586526101008204811615158685015262010000909104161515848201529091019190915290825260019290920191016120fe565b505050509150600260006126249190613cb8565b50919050565b60008181526003602052604090206001015461265c5760405163d3e4886560e01b8152600481018290526024016106a0565b6000818152600360205260409020600d81015460ff166126a8576040517fc56674a600000000000000000000000000000000000000000000000000000000815260040160405180910390fd5b33600090815260046020908152604080832085845290915290205460ff16156126ff576040517f9b01b1380000000000000000000000000000000000000000000000000000000081523360048201526024016106a0565b8054336001600160a01b0390911603612744576040517f363cb99b00000000000000000000000000000000000000000000000000000000815260040160405180910390fd5b6002600b82015460ff16600281111561275f5761275f613ea2565b03612cd557604080516101a08101825282546001600160a01b0316815260018301546020820152600283018054600093612c5693928692918401916127a3906144db565b80601f01602080910402602001604051908101604052809291908181526020018280546127cf906144db565b801561281c5780601f106127f15761010080835404028352916020019161281c565b820191906000526020600020905b8154815290600101906020018083116127ff57829003601f168201915b50505050508152602001600382018054612835906144db565b80601f0160208091040260200160405190810160405280929190818152602001828054612861906144db565b80156128ae5780601f10612883576101008083540402835291602001916128ae565b820191906000526020600020905b81548152906001019060200180831161289157829003601f168201915b505050505081526020016004820180546128c7906144db565b80601f01602080910402602001604051908101604052809291908181526020018280546128f3906144db565b80156129405780601f1061291557610100808354040283529160200191612940565b820191906000526020600020905b81548152906001019060200180831161292357829003601f168201915b50505050508152602001600582018054612959906144db565b80601f0160208091040260200160405190810160405280929190818152602001828054612985906144db565b80156129d25780601f106129a7576101008083540402835291602001916129d2565b820191906000526020600020905b8154815290600101906020018083116129b557829003601f168201915b505050505081526020016006820154815260200160078201805480602002602001604051908101604052809291908181526020018280548015612a3e57602002820191906000526020600020905b81546001600160a01b03168152600190910190602001808311612a20575b5050505050815260200160088201805480602002602001604051908101604052809291908181526020018280548015612a9657602002820191906000526020600020905b815481526020019060010190808311612a82575b5050505050815260200160098201604051806040016040529081600082018054612abf906144db565b80601f0160208091040260200160405190810160405280929190818152602001828054612aeb906144db565b8015612b385780601f10612b0d57610100808354040283529160200191612b38565b820191906000526020600020905b815481529060010190602001808311612b1b57829003601f168201915b50505050508152602001600182018054612b51906144db565b80601f0160208091040260200160405190810160405280929190818152602001828054612b7d906144db565b8015612bca5780601f10612b9f57610100808354040283529160200191612bca565b820191906000526020600020905b815481529060010190602001808311612bad57829003601f168201915b505050919092525050508152600b82015460209091019060ff166002811115612bf557612bf5613ea2565b6002811115612c0657612c06613ea2565b8152600c82015460208083019190915260408051606081018252600d9094015460ff808216151586526101008204811615159386019390935262010000900490911615158382015201523361395e565b600783018054600181810183556000928352602080842090920180546001600160a01b03191633908117909155808452600483526040808520898652909352828420805460ff19169092179091559051929350839286927fb7f299e98a5f1a10cac6f9de415eb1bcaa2a60a33cc22c24d2e334c8870ad26b91a4505050565b6001600b82015460ff166002811115612cf057612cf0613ea2565b03612d31576007810180546001810182556000918252602080832090910180546001600160a01b031916339081179091558252600481526040822091849052525b5050565b612d3d6132af565b6001600160a01b038116612d80576040517f1e4fbdf7000000000000000000000000000000000000000000000000000000008152600060048201526024016106a0565b612d89816132dc565b50565b612d94613c11565b600082815260036020908152604080832081516101a08101835281546001600160a01b031681526001820154938101939093526002810180549192840191612ddb906144db565b80601f0160208091040260200160405190810160405280929190818152602001828054612e07906144db565b8015612e545780601f10612e2957610100808354040283529160200191612e54565b820191906000526020600020905b815481529060010190602001808311612e3757829003601f168201915b50505050508152602001600382018054612e6d906144db565b80601f0160208091040260200160405190810160405280929190818152602001828054612e99906144db565b8015612ee65780601f10612ebb57610100808354040283529160200191612ee6565b820191906000526020600020905b815481529060010190602001808311612ec957829003601f168201915b50505050508152602001600482018054612eff906144db565b80601f0160208091040260200160405190810160405280929190818152602001828054612f2b906144db565b8015612f785780601f10612f4d57610100808354040283529160200191612f78565b820191906000526020600020905b815481529060010190602001808311612f5b57829003601f168201915b50505050508152602001600582018054612f91906144db565b80601f0160208091040260200160405190810160405280929190818152602001828054612fbd906144db565b801561300a5780601f10612fdf5761010080835404028352916020019161300a565b820191906000526020600020905b815481529060010190602001808311612fed57829003601f168201915b50505050508152602001600682015481526020016007820180548060200260200160405190810160405280929190818152602001828054801561307657602002820191906000526020600020905b81546001600160a01b03168152600190910190602001808311613058575b50505050508152602001600882018054806020026020016040519081016040528092919081815260200182805480156130ce57602002820191906000526020600020905b8154815260200190600101908083116130ba575b50505050508152602001600982016040518060400160405290816000820180546130f7906144db565b80601f0160208091040260200160405190810160405280929190818152602001828054613123906144db565b80156131705780601f1061314557610100808354040283529160200191613170565b820191906000526020600020905b81548152906001019060200180831161315357829003601f168201915b50505050508152602001600182018054613189906144db565b80601f01602080910402602001604051908101604052809291908181526020018280546131b5906144db565b80156132025780601f106131d757610100808354040283529160200191613202565b820191906000526020600020905b8154815290600101906020018083116131e557829003601f168201915b505050919092525050508152600b82015460209091019060ff16600281111561322d5761322d613ea2565b600281111561323e5761323e613ea2565b8152600c82015460208083019190915260408051606081018252600d9094015460ff8082161515865261010082048116151586850152620100009091041615158482015290910191909152810151909150610d695760405163d3e4886560e01b8152600481018490526024016106a0565b6000546001600160a01b03163314610c305760405163118cdaa760e01b81523360048201526024016106a0565b600080546001600160a01b038381166001600160a01b0319831681178455604051919092169283917f8be0079c531659141344cd1fd0a4f28419497f9722a3daafe3b4186f6b6457e09190a35050565b613334613c11565b6000826040516020016133479190614685565b60408051601f19818403018152918152815160209283012060008181526003938490529190912080546001600160a01b03191633178155600181018290558551919350918201906133989082614599565b50602084015160028201906133ad9082614599565b50608084015160058201906133c29082614599565b50604084015160048201906133d79082614599565b5083606001516000036133ff57600b8101805460ff1916600117905560006006820155613423565b60608401511561342357600b8101805460ff19166002179055606084015160068201555b60a0840151805161343e916008840191602090910190613bd6565b5060c084015160098201906134539082614599565b5060e0840151600a8201906134689082614599565b5042600c820155604080516101a08101825282546001600160a01b03168152600183015460208201526002830180549192849290840191906134a9906144db565b80601f01602080910402602001604051908101604052809291908181526020018280546134d5906144db565b80156135225780601f106134f757610100808354040283529160200191613522565b820191906000526020600020905b81548152906001019060200180831161350557829003601f168201915b5050505050815260200160038201805461353b906144db565b80601f0160208091040260200160405190810160405280929190818152602001828054613567906144db565b80156135b45780601f10613589576101008083540402835291602001916135b4565b820191906000526020600020905b81548152906001019060200180831161359757829003601f168201915b505050505081526020016004820180546135cd906144db565b80601f01602080910402602001604051908101604052809291908181526020018280546135f9906144db565b80156136465780601f1061361b57610100808354040283529160200191613646565b820191906000526020600020905b81548152906001019060200180831161362957829003601f168201915b5050505050815260200160058201805461365f906144db565b80601f016020809104026020016040519081016040528092919081815260200182805461368b906144db565b80156136d85780601f106136ad576101008083540402835291602001916136d8565b820191906000526020600020905b8154815290600101906020018083116136bb57829003601f168201915b50505050508152602001600682015481526020016007820180548060200260200160405190810160405280929190818152602001828054801561374457602002820191906000526020600020905b81546001600160a01b03168152600190910190602001808311613726575b505050505081526020016008820180548060200260200160405190810160405280929190818152602001828054801561379c57602002820191906000526020600020905b815481526020019060010190808311613788575b50505050508152602001600982016040518060400160405290816000820180546137c5906144db565b80601f01602080910402602001604051908101604052809291908181526020018280546137f1906144db565b801561383e5780601f106138135761010080835404028352916020019161383e565b820191906000526020600020905b81548152906001019060200180831161382157829003601f168201915b50505050508152602001600182018054613857906144db565b80601f0160208091040260200160405190810160405280929190818152602001828054613883906144db565b80156138d05780601f106138a5576101008083540402835291602001916138d0565b820191906000526020600020905b8154815290600101906020018083116138b357829003601f168201915b505050919092525050508152600b82015460209091019060ff1660028111156138fb576138fb613ea2565b600281111561390c5761390c613ea2565b8152600c82015460208083019190915260408051606081018252600d9094015460ff80821615158652610100820481161515938601939093526201000090049091161515838201520152949350505050565b6040517fdd62ed3e0000000000000000000000000000000000000000000000000000000081526001600160a01b03828116600483015230602483015260009182917f0000000000000000000000000000000000000000000000000000000000000000169063dd62ed3e90604401602060405180830381865afa1580156139e8573d6000803e3d6000fd5b505050506040513d601f19601f82011682018060405250810190613a0c9190614767565b60c085015190915080821015613a51576040517faf1cf8f3000000000000000000000000000000000000000000000000000000008152600481018390526024016106a0565b6040517f23b872dd0000000000000000000000000000000000000000000000000000000081526001600160a01b038581166004830152306024830152604482018390527f000000000000000000000000000000000000000000000000000000000000000016906323b872dd906064016020604051808303816000875af1158015613adf573d6000803e3d6000fd5b505050506040513d601f19601f82011682018060405250810190613b039190614780565b613b69576040517f08c379a000000000000000000000000000000000000000000000000000000000815260206004820152600e60248201527f5061796d656e74204661696c656400000000000000000000000000000000000060448201526064016106a0565b949350505050565b828054828255906000526020600020908101928215613bc6579160200282015b82811115613bc657825182546001600160a01b0319166001600160a01b03909116178255602090920191600190910190613b91565b50613bd2929150613cd9565b5090565b828054828255906000526020600020908101928215613bc6579160200282015b82811115613bc6578251825591602001919060010190613bf6565b604051806101a0016040528060006001600160a01b031681526020016000801916815260200160608152602001606081526020016060815260200160608152602001600081526020016060815260200160608152602001613c85604051806040016040528060608152602001606081525090565b81526020016000815260006020808301829052604080516060810182528381529182018390528181019290925291015290565b50805460008255600e0290600052602060002090810190612d899190613cee565b5b80821115613bd25760008155600101613cda565b80821115613bd25780546001600160a01b0319168155600060018201819055613d1a6002830182613db4565b613d28600383016000613db4565b613d36600483016000613db4565b613d44600583016000613db4565b6006820160009055600782016000613d5c9190613dee565b613d6a600883016000613dee565b600982016000613d7a8282613db4565b613d88600183016000613db4565b505050600b8101805460ff191690556000600c820155600d8101805462ffffff19169055600e01613cee565b508054613dc0906144db565b6000825580601f10613dd0575050565b601f016020900490600052602060002090810190612d899190613cd9565b5080546000825590600052602060002090810190612d899190613cd9565b600060208284031215613e1e57600080fd5b5035919050565b6000815180845260005b81811015613e4b57602081850181015186830182015201613e2f565b506000602082860101526020601f19601f83011685010191505092915050565b6000815160408452613e806040850182613e25565b905060208301518482036020860152613e998282613e25565b95945050505050565b634e487b7160e01b600052602160045260246000fd5b60038110613ed657634e487b7160e01b600052602160045260246000fd5b9052565b60006101a06001600160a01b038e1683528c6020840152806040840152613f038184018d613e25565b90508281036060840152613f17818c613e25565b90508281036080840152613f2b818b613e25565b905082810360a0840152613f3f818a613e25565b90508760c084015282810360e0840152613f598188613e6b565b915050613f6a610100830186613eb8565b61012082018490528251151561014083015260208301511515610160830152604083015115156101808301529c9b505050505050505050505050565b80356001600160a01b0381168114613fbd57600080fd5b919050565b60008060408385031215613fd557600080fd5b613fde83613fa6565b946020939093013593505050565b600081518084526020808501945080840160005b838110156140255781516001600160a01b031687529582019590820190600101614000565b509495945050505050565b600081518084526020808501945080840160005b8381101561402557815187529582019590820190600101614044565b80516001600160a01b0316825260006101e060208301516020850152604083015181604086015261409382860182613e25565b915050606083015184820360608601526140ad8282613e25565b915050608083015184820360808601526140c78282613e25565b91505060a083015184820360a08601526140e18282613e25565b91505060c083015160c085015260e083015184820360e08601526141058282613fec565b91505061010080840151858303828701526141208382614030565b92505050610120808401518583038287015261413c8382613e6b565b925050506101408084015161415382870182613eb8565b50506101608381015190850152610180808401518051151582870152602081015115156101a0870152604081015115156101c08701525090949350505050565b6020815260006141a66020830184614060565b9392505050565b634e487b7160e01b600052604160045260246000fd5b604051610100810167ffffffffffffffff811182821017156141e7576141e76141ad565b60405290565b604051601f8201601f1916810167ffffffffffffffff81118282101715614216576142166141ad565b604052919050565b600082601f83011261422f57600080fd5b813567ffffffffffffffff811115614249576142496141ad565b61425c601f8201601f19166020016141ed565b81815284602083860101111561427157600080fd5b816020850160208301376000918101602001919091529392505050565b600082601f83011261429f57600080fd5b8135602067ffffffffffffffff8211156142bb576142bb6141ad565b8160051b6142ca8282016141ed565b92835284810182019282810190878511156142e457600080fd5b83870192505b84831015614303578235825291830191908301906142ea565b979650505050505050565b60006020828403121561432057600080fd5b813567ffffffffffffffff8082111561433857600080fd5b90830190610100828603121561434d57600080fd5b6143556141c3565b82358281111561436457600080fd5b6143708782860161421e565b82525060208301358281111561438557600080fd5b6143918782860161421e565b6020830152506040830135828111156143a957600080fd5b6143b58782860161421e565b604083015250606083013560608201526080830135828111156143d757600080fd5b6143e38782860161421e565b60808301525060a0830135828111156143fb57600080fd5b6144078782860161428e565b60a08301525060c08301358281111561441f57600080fd5b61442b8782860161421e565b60c08301525060e08301358281111561444357600080fd5b61444f8782860161421e565b60e08301525095945050505050565b6000602080830181845280855180835260408601915060408160051b870101925083870160005b828110156144b357603f198886030184526144a1858351614060565b94509285019290850190600101614485565b5092979650505050505050565b6000602082840312156144d257600080fd5b6141a682613fa6565b600181811c908216806144ef57607f821691505b60208210810361262457634e487b7160e01b600052602260045260246000fd5b634e487b7160e01b600052601160045260246000fd5b81810381811115610d6957610d6961450f565b634e487b7160e01b600052603260045260246000fd5b601f82111561459457600081815260208120601f850160051c810160208610156145755750805b601f850160051c820191505b81811015610d1e57828155600101614581565b505050565b815167ffffffffffffffff8111156145b3576145b36141ad565b6145c7816145c184546144db565b8461454e565b602080601f8311600181146145fc57600084156145e45750858301515b600019600386901b1c1916600185901b178555610d1e565b600085815260208120601f198616915b8281101561462b5788860151825594840194600190910190840161460c565b50858210156146495787850151600019600388901b60f8161c191681555b5050505050600190811b01905550565b6020815260006141a66020830184613e25565b60006001820161467e5761467e61450f565b5060010190565b60208152600082516101008060208501526146a4610120850183613e25565b91506020850151601f19808685030160408701526146c28483613e25565b935060408701519150808685030160608701526146df8483613e25565b93506060870151608087015260808701519150808685030160a08701526147068483613e25565b935060a08701519150808685030160c08701526147238483614030565b935060c08701519150808685030160e08701526147408483613e25565b935060e087015191508086850301838701525061475d8382613e25565b9695505050505050565b60006020828403121561477957600080fd5b5051919050565b60006020828403121561479257600080fd5b815180151581146141a657600080fdfea2646970667358221220a420f35670c5be68801b7b44a4579854396565dc6b15e8f8e7cd88ca84d6f83d64736f6c63430008140033",
  "linkReferences": {},
  "deployedLinkReferences": {}
}