{
  "_format": "hh-sol-artifact-1",
  "contractName": "VenturaTokens",
  "sourceName": "contracts/VenturaTokens.sol",
  "abi": [
    {
      "inputs": [
        {
          "internalType": "address",
          "name": "_owner",
          "type": "address"
        }
      ],
      "stateMutability": "nonpayable",
      "type": "constructor"
    },
    {
      "inputs": [
        {
          "internalType": "address",
          "name": "sender",
          "type": "address"
        },
        {
          "internalType": "uint256",
          "name": "balance",
          "type": "uint256"
        },
        {
          "internalType": "uint256",
          "name": "needed",
          "type": "uint256"
        },
        {
          "internalType": "uint256",
          "name": "tokenId",
          "type": "uint256"
        }
      ],
      "name": "ERC1155InsufficientBalance",
      "type": "error"
    },
    {
      "inputs": [
        {
          "internalType": "address",
          "name": "approver",
          "type": "address"
        }
      ],
      "name": "ERC1155InvalidApprover",
      "type": "error"
    },
    {
      "inputs": [
        {
          "internalType": "uint256",
          "name": "idsLength",
          "type": "uint256"
        },
        {
          "internalType": "uint256",
          "name": "valuesLength",
          "type": "uint256"
        }
      ],
      "name": "ERC1155InvalidArrayLength",
      "type": "error"
    },
    {
      "inputs": [
        {
          "internalType": "address",
          "name": "operator",
          "type": "address"
        }
      ],
      "name": "ERC1155InvalidOperator",
      "type": "error"
    },
    {
      "inputs": [
        {
          "internalType": "address",
          "name": "receiver",
          "type": "address"
        }
      ],
      "name": "ERC1155InvalidReceiver",
      "type": "error"
    },
    {
      "inputs": [
        {
          "internalType": "address",
          "name": "sender",
          "type": "address"
        }
      ],
      "name": "ERC1155InvalidSender",
      "type": "error"
    },
    {
      "inputs": [
        {
          "internalType": "address",
          "name": "operator",
          "type": "address"
        },
        {
          "internalType": "address",
          "name": "owner",
          "type": "address"
        }
      ],
      "name": "ERC1155MissingApprovalForAll",
      "type": "error"
    },
    {
      "inputs": [
        {
          "internalType": "address",
          "name": "owner",
          "type": "address"
        }
      ],
      "name": "OwnableInvalidOwner",
      "type": "error"
    },
    {
      "inputs": [
        {
          "internalType": "address",
          "name": "account",
          "type": "address"
        }
      ],
      "name": "OwnableUnauthorizedAccount",
      "type": "error"
    },
    {
      "inputs": [],
      "name": "TOKEN_NOT_TRANSFERABLE",
      "type": "error"
    },
    {
      "anonymous": false,
      "inputs": [
        {
          "indexed": true,
          "internalType": "address",
          "name": "account",
          "type": "address"
        },
        {
          "indexed": true,
          "internalType": "address",
          "name": "operator",
          "type": "address"
        },
        {
          "indexed": false,
          "internalType": "bool",
          "name": "approved",
          "type": "bool"
        }
      ],
      "name": "ApprovalForAll",
      "type": "event"
    },
    {
      "anonymous": false,
      "inputs": [
        {
          "indexed": true,
          "internalType": "address",
          "name": "previousOwner",
          "type": "address"
        },
        {
          "indexed": true,
          "internalType": "address",
          "name": "newOwner",
          "type": "address"
        }
      ],
      "name": "OwnershipTransferred",
      "type": "event"
    },
    {
      "anonymous": false,
      "inputs": [
        {
          "indexed": true,
          "internalType": "address",
          "name": "operator",
          "type": "address"
        },
        {
          "indexed": true,
          "internalType": "address",
          "name": "from",
          "type": "address"
        },
        {
          "indexed": true,
          "internalType": "address",
          "name": "to",
          "type": "address"
        },
        {
          "indexed": false,
          "internalType": "uint256[]",
          "name": "ids",
          "type": "uint256[]"
        },
        {
          "indexed": false,
          "internalType": "uint256[]",
          "name": "values",
          "type": "uint256[]"
        }
      ],
      "name": "TransferBatch",
      "type": "event"
    },
    {
      "anonymous": false,
      "inputs": [
        {
          "indexed": true,
          "internalType": "address",
          "name": "operator",
          "type": "address"
        },
        {
          "indexed": true,
          "internalType": "address",
          "name": "from",
          "type": "address"
        },
        {
          "indexed": true,
          "internalType": "address",
          "name": "to",
          "type": "address"
        },
        {
          "indexed": false,
          "internalType": "uint256",
          "name": "id",
          "type": "uint256"
        },
        {
          "indexed": false,
          "internalType": "uint256",
          "name": "value",
          "type": "uint256"
        }
      ],
      "name": "TransferSingle",
      "type": "event"
    },
    {
      "anonymous": false,
      "inputs": [
        {
          "indexed": false,
          "internalType": "string",
          "name": "value",
          "type": "string"
        },
        {
          "indexed": true,
          "internalType": "uint256",
          "name": "id",
          "type": "uint256"
        }
      ],
      "name": "URI",
      "type": "event"
    },
    {
      "inputs": [],
      "name": "CREATOR_NFT_ID",
      "outputs": [
        {
          "internalType": "uint256",
          "name": "",
          "type": "uint256"
        }
      ],
      "stateMutability": "view",
      "type": "function"
    },
    {
      "inputs": [],
      "name": "POAT_NFT_ID",
      "outputs": [
        {
          "internalType": "uint256",
          "name": "",
          "type": "uint256"
        }
      ],
      "stateMutability": "view",
      "type": "function"
    },
    {
      "inputs": [],
      "name": "TOKEN_LIMIT",
      "outputs": [
        {
          "internalType": "uint8",
          "name": "",
          "type": "uint8"
        }
      ],
      "stateMutability": "view",
      "type": "function"
    },
    {
      "inputs": [],
      "name": "VENTURA",
      "outputs": [
        {
          "internalType": "uint256",
          "name": "",
          "type": "uint256"
        }
      ],
      "stateMutability": "view",
      "type": "function"
    },
    {
      "inputs": [
        {
          "internalType": "address",
          "name": "account",
          "type": "address"
        },
        {
          "internalType": "uint256",
          "name": "id",
          "type": "uint256"
        }
      ],
      "name": "balanceOf",
      "outputs": [
        {
          "internalType": "uint256",
          "name": "",
          "type": "uint256"
        }
      ],
      "stateMutability": "view",
      "type": "function"
    },
    {
      "inputs": [
        {
          "internalType": "address[]",
          "name": "accounts",
          "type": "address[]"
        },
        {
          "internalType": "uint256[]",
          "name": "ids",
          "type": "uint256[]"
        }
      ],
      "name": "balanceOfBatch",
      "outputs": [
        {
          "internalType": "uint256[]",
          "name": "",
          "type": "uint256[]"
        }
      ],
      "stateMutability": "view",
      "type": "function"
    },
    {
      "inputs": [],
      "name": "contractURI",
      "outputs": [
        {
          "internalType": "string",
          "name": "",
          "type": "string"
        }
      ],
      "stateMutability": "pure",
      "type": "function"
    },
    {
      "inputs": [
        {
          "internalType": "address",
          "name": "account",
          "type": "address"
        },
        {
          "internalType": "address",
          "name": "operator",
          "type": "address"
        }
      ],
      "name": "isApprovedForAll",
      "outputs": [
        {
          "internalType": "bool",
          "name": "",
          "type": "bool"
        }
      ],
      "stateMutability": "view",
      "type": "function"
    },
    {
      "inputs": [
        {
          "internalType": "address",
          "name": "to",
          "type": "address"
        },
        {
          "internalType": "uint256",
          "name": "id",
          "type": "uint256"
        },
        {
          "internalType": "uint256",
          "name": "value",
          "type": "uint256"
        },
        {
          "internalType": "bytes",
          "name": "data",
          "type": "bytes"
        }
      ],
      "name": "mint",
      "outputs": [],
      "stateMutability": "nonpayable",
      "type": "function"
    },
    {
      "inputs": [
        {
          "internalType": "uint256",
          "name": "",
          "type": "uint256"
        }
      ],
      "name": "nft_metadata",
      "outputs": [
        {
          "internalType": "string",
          "name": "",
          "type": "string"
        }
      ],
      "stateMutability": "view",
      "type": "function"
    },
    {
      "inputs": [],
      "name": "owner",
      "outputs": [
        {
          "internalType": "address",
          "name": "",
          "type": "address"
        }
      ],
      "stateMutability": "view",
      "type": "function"
    },
    {
      "inputs": [],
      "name": "renounceOwnership",
      "outputs": [],
      "stateMutability": "nonpayable",
      "type": "function"
    },
    {
      "inputs": [
        {
          "internalType": "address",
          "name": "from",
          "type": "address"
        },
        {
          "internalType": "address",
          "name": "to",
          "type": "address"
        },
        {
          "internalType": "uint256[]",
          "name": "ids",
          "type": "uint256[]"
        },
        {
          "internalType": "uint256[]",
          "name": "values",
          "type": "uint256[]"
        },
        {
          "internalType": "bytes",
          "name": "data",
          "type": "bytes"
        }
      ],
      "name": "safeBatchTransferFrom",
      "outputs": [],
      "stateMutability": "nonpayable",
      "type": "function"
    },
    {
      "inputs": [
        {
          "internalType": "address",
          "name": "from",
          "type": "address"
        },
        {
          "internalType": "address",
          "name": "to",
          "type": "address"
        },
        {
          "internalType": "uint256",
          "name": "id",
          "type": "uint256"
        },
        {
          "internalType": "uint256",
          "name": "value",
          "type": "uint256"
        },
        {
          "internalType": "bytes",
          "name": "data",
          "type": "bytes"
        }
      ],
      "name": "safeTransferFrom",
      "outputs": [],
      "stateMutability": "nonpayable",
      "type": "function"
    },
    {
      "inputs": [
        {
          "internalType": "address",
          "name": "operator",
          "type": "address"
        },
        {
          "internalType": "bool",
          "name": "approved",
          "type": "bool"
        }
      ],
      "name": "setApprovalForAll",
      "outputs": [],
      "stateMutability": "nonpayable",
      "type": "function"
    },
    {
      "inputs": [
        {
          "internalType": "string",
          "name": "_uri",
          "type": "string"
        }
      ],
      "name": "setURI",
      "outputs": [],
      "stateMutability": "nonpayable",
      "type": "function"
    },
    {
      "inputs": [
        {
          "internalType": "bytes4",
          "name": "interfaceId",
          "type": "bytes4"
        }
      ],
      "name": "supportsInterface",
      "outputs": [
        {
          "internalType": "bool",
          "name": "",
          "type": "bool"
        }
      ],
      "stateMutability": "view",
      "type": "function"
    },
    {
      "inputs": [
        {
          "internalType": "uint256",
          "name": "",
          "type": "uint256"
        }
      ],
      "name": "tokenURI",
      "outputs": [
        {
          "internalType": "string",
          "name": "",
          "type": "string"
        }
      ],
      "stateMutability": "view",
      "type": "function"
    },
    {
      "inputs": [
        {
          "internalType": "address",
          "name": "newOwner",
          "type": "address"
        }
      ],
      "name": "transferOwnership",
      "outputs": [],
      "stateMutability": "nonpayable",
      "type": "function"
    },
    {
      "inputs": [
        {
          "internalType": "uint256",
          "name": "_id",
          "type": "uint256"
        }
      ],
      "name": "uri",
      "outputs": [
        {
          "internalType": "string",
          "name": "",
          "type": "string"
        }
      ],
      "stateMutability": "view",
      "type": "function"
    }
  ],
  "bytecode": "0x60806040523480156200001157600080fd5b5060405162001d8938038062001d898339810160408190526200003491620002dd565b604080516020810190915260008152819062000050816200009d565b506001600160a01b0381166200008057604051631e4fbdf760e01b81526000600482015260240160405180910390fd5b6200008b81620000af565b506200009662000101565b5062000480565b6002620000ab8282620003b4565b5050565b600380546001600160a01b038381166001600160a01b0319831681179093556040519116919082907f8be0079c531659141344cd1fd0a4f28419497f9722a3daafe3b4186f6b6457e090600090a35050565b6004805460018101825560009182526040805160808101909152605080825260008051602062001d69833981519152909201929162001d1960208301396200014b915082620003b4565b5060405180608001604052806050815260200162001d1960509139600160005260056020527f1471eb6eb2c5e789fc3de43f8ce62938c7d1836ec861730447e2ada8fd81017b906200019e9082620003b4565b506004805460018101825560009182526040805160808101909152605080825260008051602062001d69833981519152909201929162001cc96020830139620001e9915082620003b4565b5060405180608001604052806050815260200162001cc960509139600260005260056020527f89832631fb3c3307a103ba2c84ab569c64d6182a18893dcd163f0f1c2090733a906200023c9082620003b4565b506004805460018101825560009182526040805160808101909152604d80825260008051602062001d69833981519152909201929162001c7c602083013962000287915082620003b4565b506040518060800160405280604d815260200162001c7c604d9139600360005260056020527fa9bc9a3a348c357ba16b37005d7e6b3236198c0e939f4af8c5f19b8deeb8ebc090620002da9082620003b4565b50565b600060208284031215620002f057600080fd5b81516001600160a01b03811681146200030857600080fd5b9392505050565b634e487b7160e01b600052604160045260246000fd5b600181811c908216806200033a57607f821691505b6020821081036200035b57634e487b7160e01b600052602260045260246000fd5b50919050565b601f821115620003af57600081815260208120601f850160051c810160208610156200038a5750805b601f850160051c820191505b81811015620003ab5782815560010162000396565b5050505b505050565b81516001600160401b03811115620003d057620003d06200030f565b620003e881620003e1845462000325565b8462000361565b602080601f831160018114620004205760008415620004075750858301515b600019600386901b1c1916600185901b178555620003ab565b600085815260208120601f198616915b82811015620004515788860151825594840194600190910190840162000430565b5085821015620004705787850151600019600388901b60f8161c191681555b5050505050600190811b01905550565b6117ec80620004906000396000f3fe608060405234801561001057600080fd5b506004361061016b5760003560e01c80637d41aa8e116100cd578063e8a3d48511610081578063edb1b06911610066578063edb1b069146102f3578063f242432a14610306578063f2fde38b1461031957600080fd5b8063e8a3d485146102af578063e985e9c5146102b757600080fd5b80638da5cb5b116100b25780638da5cb5b1461026e578063a22cb46514610289578063c87b56dd1461029c57600080fd5b80637d41aa8e1461025e5780637f1cc9891461026657600080fd5b80632eb2c2d611610124578063594bb50011610109578063594bb5001461023b578063715018a614610243578063731133e91461024b57600080fd5b80632eb2c2d6146102085780634e1273f41461021b57600080fd5b806302fe53051161015557806302fe5305146101b9578063031bd4c4146101ce5780630e89341c146101e857600080fd5b8062fdd58e1461017057806301ffc9a714610196575b600080fd5b61018361017e366004610f60565b61032c565b6040519081526020015b60405180910390f35b6101a96101a4366004610fa0565b610354565b604051901515815260200161018d565b6101cc6101c7366004611063565b6103ef565b005b6101d6600181565b60405160ff909116815260200161018d565b6101fb6101f63660046110b4565b610403565b60405161018d9190611113565b6101cc6102163660046111d5565b6104a5565b61022e61022936600461127f565b6104c1565b60405161018d919061137a565b610183600081565b6101cc61059b565b6101cc61025936600461138d565b6105af565b610183600281565b610183600181565b6003546040516001600160a01b03909116815260200161018d565b6101cc6102973660046113ee565b6105c1565b6101fb6102aa3660046110b4565b6105d0565b6101fb61066a565b6101a96102c536600461142a565b6001600160a01b03918216600090815260016020908152604080832093909416825291909152205460ff1690565b6101fb6103013660046110b4565b61068a565b6101cc61031436600461145d565b6106b5565b6101cc6103273660046114c2565b6106ca565b6000818152602081815260408083206001600160a01b03861684529091529020545b92915050565b60006001600160e01b031982167fd9b67a260000000000000000000000000000000000000000000000000000000014806103b757506001600160e01b031982167f0e89341c00000000000000000000000000000000000000000000000000000000145b8061034e57507f01ffc9a7000000000000000000000000000000000000000000000000000000006001600160e01b031983161461034e565b6103f761071e565b61040081610764565b50565b6000818152600560205260409020805460609190610420906114dd565b80601f016020809104026020016040519081016040528092919081815260200182805461044c906114dd565b80156104995780601f1061046e57610100808354040283529160200191610499565b820191906000526020600020905b81548152906001019060200180831161047c57829003601f168201915b50505050509050919050565b6104ad61080f565b6104ba8585858585610841565b5050505050565b606081518351146104f75781518351604051635b05999160e01b8152600481019290925260248201526044015b60405180910390fd5b6000835167ffffffffffffffff81111561051357610513610fc4565b60405190808252806020026020018201604052801561053c578160200160208202803683370190505b50905060005b8451811015610593576020808202860101516105669060208084028701015161032c565b82828151811061057857610578611517565b602090810291909101015261058c81611543565b9050610542565b509392505050565b6105a361071e565b6105ad60006108a1565b565b6105bb8484848461090b565b50505050565b6105cc338383610970565b5050565b600560205260009081526040902080546105e9906114dd565b80601f0160208091040260200160405190810160405280929190818152602001828054610615906114dd565b80156106625780601f1061063757610100808354040283529160200191610662565b820191906000526020600020905b81548152906001019060200180831161064557829003601f168201915b505050505081565b606060405180608001604052806050815260200161176760509139905090565b6004818154811061069a57600080fd5b9060005260206000200160009150905080546105e9906114dd565b6106bd61080f565b6104ba8585858585610a20565b6106d261071e565b6001600160a01b038116610715576040517f1e4fbdf7000000000000000000000000000000000000000000000000000000008152600060048201526024016104ee565b610400816108a1565b6003546001600160a01b031633146105ad576040517f118cdaa70000000000000000000000000000000000000000000000000000000081523360048201526024016104ee565b600061076f60045490565b61077a90600161155c565b600081815260056020526040902090915061079583826115ba565b50600480546001810182556000919091527f8a35acfbc15ff81a39ae7d344fd709f28e8600b4aa8c65c6b64bfe7fe36bd19b016107d283826115ba565b50807f6bb7ff708619ba0610cba295a58592e0451dee2622938c8755667688daf3529b836040516108039190611113565b60405180910390a25050565b6040517f1de8803000000000000000000000000000000000000000000000000000000000815260040160405180910390fd5b6001600160a01b03841661086b57604051632bfa23e760e11b8152600060048201526024016104ee565b6001600160a01b03851661089457604051626a0d4560e21b8152600060048201526024016104ee565b6104ba8585858585610aae565b600380546001600160a01b038381167fffffffffffffffffffffffff0000000000000000000000000000000000000000831681179093556040519116919082907f8be0079c531659141344cd1fd0a4f28419497f9722a3daafe3b4186f6b6457e090600090a35050565b6001600160a01b03841661093557604051632bfa23e760e11b8152600060048201526024016104ee565b60408051600180825260208201869052818301908152606082018590526080820190925290610968600087848487610aae565b505050505050565b6001600160a01b0382166109b3576040517fced3e100000000000000000000000000000000000000000000000000000000008152600060048201526024016104ee565b6001600160a01b03838116600081815260016020908152604080832094871680845294825291829020805460ff191686151590811790915591519182527f17307eab39ab6107e8899845ad3d59bd9653f200f220920489ca2b5937696c31910160405180910390a3505050565b6001600160a01b038416610a4a57604051632bfa23e760e11b8152600060048201526024016104ee565b6001600160a01b038516610a7357604051626a0d4560e21b8152600060048201526024016104ee565b60408051600180825260208201869052818301908152606082018590526080820190925290610aa58787848487610aae565b50505050505050565b610aba85858585610b01565b6001600160a01b038416156104ba5782513390600103610af35760208481015190840151610aec838989858589610d37565b5050610968565b610968818787878787610e5b565b8051825114610b305781518151604051635b05999160e01b8152600481019290925260248201526044016104ee565b3360005b8351811015610c58576020818102858101820151908501909101516001600160a01b03881615610c00576000828152602081815260408083206001600160a01b038c16845290915290205481811015610bd9576040517f03dee4c50000000000000000000000000000000000000000000000000000000081526001600160a01b038a1660048201526024810182905260448101839052606481018490526084016104ee565b6000838152602081815260408083206001600160a01b038d16845290915290209082900390555b6001600160a01b03871615610c45576000828152602081815260408083206001600160a01b038b16845290915281208054839290610c3f90849061155c565b90915550505b505080610c5190611543565b9050610b34565b508251600103610cd95760208301516000906020840151909150856001600160a01b0316876001600160a01b0316846001600160a01b03167fc3d58168c5ae7397731d063d5bbf3d657854427343f4c083240f7aacaa2d0f628585604051610cca929190918252602082015260400190565b60405180910390a450506104ba565b836001600160a01b0316856001600160a01b0316826001600160a01b03167f4a39dc06d4c0dbc64b70af90fd698a233a518aa5d07e595d983b8c0526c8f7fb8686604051610d2892919061167a565b60405180910390a45050505050565b6001600160a01b0384163b156109685760405163f23a6e6160e01b81526001600160a01b0385169063f23a6e6190610d7b90899089908890889088906004016116a8565b6020604051808303816000875af1925050508015610db6575060408051601f3d908101601f19168201909252610db3918101906116eb565b60015b610e1f573d808015610de4576040519150601f19603f3d011682016040523d82523d6000602084013e610de9565b606091505b508051600003610e1757604051632bfa23e760e11b81526001600160a01b03861660048201526024016104ee565b805181602001fd5b6001600160e01b0319811663f23a6e6160e01b14610aa557604051632bfa23e760e11b81526001600160a01b03861660048201526024016104ee565b6001600160a01b0384163b156109685760405163bc197c8160e01b81526001600160a01b0385169063bc197c8190610e9f9089908990889088908890600401611708565b6020604051808303816000875af1925050508015610eda575060408051601f3d908101601f19168201909252610ed7918101906116eb565b60015b610f08573d808015610de4576040519150601f19603f3d011682016040523d82523d6000602084013e610de9565b6001600160e01b0319811663bc197c8160e01b14610aa557604051632bfa23e760e11b81526001600160a01b03861660048201526024016104ee565b80356001600160a01b0381168114610f5b57600080fd5b919050565b60008060408385031215610f7357600080fd5b610f7c83610f44565b946020939093013593505050565b6001600160e01b03198116811461040057600080fd5b600060208284031215610fb257600080fd5b8135610fbd81610f8a565b9392505050565b634e487b7160e01b600052604160045260246000fd5b604051601f8201601f1916810167ffffffffffffffff8111828210171561100357611003610fc4565b604052919050565b600067ffffffffffffffff83111561102557611025610fc4565b611038601f8401601f1916602001610fda565b905082815283838301111561104c57600080fd5b828260208301376000602084830101529392505050565b60006020828403121561107557600080fd5b813567ffffffffffffffff81111561108c57600080fd5b8201601f8101841361109d57600080fd5b6110ac8482356020840161100b565b949350505050565b6000602082840312156110c657600080fd5b5035919050565b6000815180845260005b818110156110f3576020818501810151868301820152016110d7565b506000602082860101526020601f19601f83011685010191505092915050565b602081526000610fbd60208301846110cd565b600067ffffffffffffffff82111561114057611140610fc4565b5060051b60200190565b600082601f83011261115b57600080fd5b8135602061117061116b83611126565b610fda565b82815260059290921b8401810191818101908684111561118f57600080fd5b8286015b848110156111aa5780358352918301918301611193565b509695505050505050565b600082601f8301126111c657600080fd5b610fbd8383356020850161100b565b600080600080600060a086880312156111ed57600080fd5b6111f686610f44565b945061120460208701610f44565b9350604086013567ffffffffffffffff8082111561122157600080fd5b61122d89838a0161114a565b9450606088013591508082111561124357600080fd5b61124f89838a0161114a565b9350608088013591508082111561126557600080fd5b50611272888289016111b5565b9150509295509295909350565b6000806040838503121561129257600080fd5b823567ffffffffffffffff808211156112aa57600080fd5b818501915085601f8301126112be57600080fd5b813560206112ce61116b83611126565b82815260059290921b840181019181810190898411156112ed57600080fd5b948201945b838610156113125761130386610f44565b825294820194908201906112f2565b9650508601359250508082111561132857600080fd5b506113358582860161114a565b9150509250929050565b600081518084526020808501945080840160005b8381101561136f57815187529582019590820190600101611353565b509495945050505050565b602081526000610fbd602083018461133f565b600080600080608085870312156113a357600080fd5b6113ac85610f44565b93506020850135925060408501359150606085013567ffffffffffffffff8111156113d657600080fd5b6113e2878288016111b5565b91505092959194509250565b6000806040838503121561140157600080fd5b61140a83610f44565b91506020830135801515811461141f57600080fd5b809150509250929050565b6000806040838503121561143d57600080fd5b61144683610f44565b915061145460208401610f44565b90509250929050565b600080600080600060a0868803121561147557600080fd5b61147e86610f44565b945061148c60208701610f44565b93506040860135925060608601359150608086013567ffffffffffffffff8111156114b657600080fd5b611272888289016111b5565b6000602082840312156114d457600080fd5b610fbd82610f44565b600181811c908216806114f157607f821691505b60208210810361151157634e487b7160e01b600052602260045260246000fd5b50919050565b634e487b7160e01b600052603260045260246000fd5b634e487b7160e01b600052601160045260246000fd5b6000600182016115555761155561152d565b5060010190565b8082018082111561034e5761034e61152d565b601f8211156115b557600081815260208120601f850160051c810160208610156115965750805b601f850160051c820191505b81811015610968578281556001016115a2565b505050565b815167ffffffffffffffff8111156115d4576115d4610fc4565b6115e8816115e284546114dd565b8461156f565b602080601f83116001811461161d57600084156116055750858301515b600019600386901b1c1916600185901b178555610968565b600085815260208120601f198616915b8281101561164c5788860151825594840194600190910190840161162d565b508582101561166a5787850151600019600388901b60f8161c191681555b5050505050600190811b01905550565b60408152600061168d604083018561133f565b828103602084015261169f818561133f565b95945050505050565b60006001600160a01b03808816835280871660208401525084604083015283606083015260a060808301526116e060a08301846110cd565b979650505050505050565b6000602082840312156116fd57600080fd5b8151610fbd81610f8a565b60006001600160a01b03808816835280871660208401525060a0604083015261173460a083018661133f565b8281036060840152611746818661133f565b9050828103608084015261175a81856110cd565b9897505050505050505056fe68747470733a2f2f697066732e696f2f697066732f516d6654686d6d6e746734644b53613845486d62525157556b743336667a434b3534455633426554344b733768452f76656e747572612e6a736f6ea26469706673582212209c5e9cd9c6963d11dfb533d5db497666836fe2262535300fa9509df205d76d4a64736f6c6343000814003368747470733a2f2f697066732e696f2f697066732f516d6654686d6d6e746734644b53613845486d62525157556b743336667a434b3534455633426554344b733768452f706f61702e6a736f6e68747470733a2f2f697066732e696f2f697066732f516d6654686d6d6e746734644b53613845486d62525157556b743336667a434b3534455633426554344b733768452f63726561746f722e6a736f6e68747470733a2f2f697066732e696f2f697066732f516d6654686d6d6e746734644b53613845486d62525157556b743336667a434b3534455633426554344b733768452f76656e747572612e6a736f6e8a35acfbc15ff81a39ae7d344fd709f28e8600b4aa8c65c6b64bfe7fe36bd19b",
  "linkReferences": {},
  "deployedLinkReferences": {}
}